{
    "_format": "hh-sol-artifact-1",
    "contractName": "MilkyShades",
    "sourceName": "contracts/MilkyShades.sol",
    "abi": [
        {
            "inputs": [],
            "stateMutability": "nonpayable",
            "type": "constructor"
        },
        {
            "inputs": [],
            "name": "ApprovalCallerNotOwnerNorApproved",
            "type": "error"
        },
        {
            "inputs": [],
            "name": "ApprovalQueryForNonexistentToken",
            "type": "error"
        },
        {
            "inputs": [],
            "name": "ApprovalToCurrentOwner",
            "type": "error"
        },
        {
            "inputs": [],
            "name": "ApproveToCaller",
            "type": "error"
        },
        {
            "inputs": [],
            "name": "BalanceQueryForZeroAddress",
            "type": "error"
        },
        {
            "inputs": [],
            "name": "MintToZeroAddress",
            "type": "error"
        },
        {
            "inputs": [],
            "name": "MintZeroQuantity",
            "type": "error"
        },
        {
            "inputs": [],
            "name": "MintedQueryForZeroAddress",
            "type": "error"
        },
        {
            "inputs": [],
            "name": "OwnerIndexOutOfBounds",
            "type": "error"
        },
        {
            "inputs": [],
            "name": "OwnerQueryForNonexistentToken",
            "type": "error"
        },
        {
            "inputs": [],
            "name": "TokenIndexOutOfBounds",
            "type": "error"
        },
        {
            "inputs": [],
            "name": "TransferCallerNotOwnerNorApproved",
            "type": "error"
        },
        {
            "inputs": [],
            "name": "TransferFromIncorrectOwner",
            "type": "error"
        },
        {
            "inputs": [],
            "name": "TransferToNonERC721ReceiverImplementer",
            "type": "error"
        },
        {
            "inputs": [],
            "name": "TransferToZeroAddress",
            "type": "error"
        },
        {
            "anonymous": false,
            "inputs": [
                {
                    "indexed": true,
                    "internalType": "address",
                    "name": "owner",
                    "type": "address"
                },
                {
                    "indexed": true,
                    "internalType": "address",
                    "name": "approved",
                    "type": "address"
                },
                {
                    "indexed": true,
                    "internalType": "uint256",
                    "name": "tokenId",
                    "type": "uint256"
                }
            ],
            "name": "Approval",
            "type": "event"
        },
        {
            "anonymous": false,
            "inputs": [
                {
                    "indexed": true,
                    "internalType": "address",
                    "name": "owner",
                    "type": "address"
                },
                {
                    "indexed": true,
                    "internalType": "address",
                    "name": "operator",
                    "type": "address"
                },
                {
                    "indexed": false,
                    "internalType": "bool",
                    "name": "approved",
                    "type": "bool"
                }
            ],
            "name": "ApprovalForAll",
            "type": "event"
        },
        {
            "anonymous": false,
            "inputs": [
                {
                    "indexed": true,
                    "internalType": "address",
                    "name": "previousOwner",
                    "type": "address"
                },
                {
                    "indexed": true,
                    "internalType": "address",
                    "name": "newOwner",
                    "type": "address"
                }
            ],
            "name": "OwnershipTransferred",
            "type": "event"
        },
        {
            "anonymous": false,
            "inputs": [
                {
                    "indexed": true,
                    "internalType": "address",
                    "name": "from",
                    "type": "address"
                },
                {
                    "indexed": true,
                    "internalType": "address",
                    "name": "to",
                    "type": "address"
                },
                {
                    "indexed": true,
                    "internalType": "uint256",
                    "name": "tokenId",
                    "type": "uint256"
                }
            ],
            "name": "Transfer",
            "type": "event"
        },
        {
            "inputs": [
                {
                    "internalType": "address",
                    "name": "to",
                    "type": "address"
                },
                {
                    "internalType": "uint256",
                    "name": "tokenId",
                    "type": "uint256"
                }
            ],
            "name": "approve",
            "outputs": [],
            "stateMutability": "nonpayable",
            "type": "function"
        },
        {
            "inputs": [
                {
                    "internalType": "address",
                    "name": "owner",
                    "type": "address"
                }
            ],
            "name": "balanceOf",
            "outputs": [
                {
                    "internalType": "uint256",
                    "name": "",
                    "type": "uint256"
                }
            ],
            "stateMutability": "view",
            "type": "function"
        },
        {
            "inputs": [
                {
                    "internalType": "uint256",
                    "name": "tokenId",
                    "type": "uint256"
                }
            ],
            "name": "getApproved",
            "outputs": [
                {
                    "internalType": "address",
                    "name": "",
                    "type": "address"
                }
            ],
            "stateMutability": "view",
            "type": "function"
        },
        {
            "inputs": [
                {
                    "internalType": "address",
                    "name": "owner",
                    "type": "address"
                },
                {
                    "internalType": "address",
                    "name": "operator",
                    "type": "address"
                }
            ],
            "name": "isApprovedForAll",
            "outputs": [
                {
                    "internalType": "bool",
                    "name": "",
                    "type": "bool"
                }
            ],
            "stateMutability": "view",
            "type": "function"
        },
        {
            "inputs": [],
            "name": "isPublicMintEnabled",
            "outputs": [
                {
                    "internalType": "bool",
                    "name": "",
                    "type": "bool"
                }
            ],
            "stateMutability": "view",
            "type": "function"
        },
        {
            "inputs": [
                {
                    "internalType": "uint256",
                    "name": "quantity",
                    "type": "uint256"
                }
            ],
            "name": "mint",
            "outputs": [],
            "stateMutability": "payable",
            "type": "function"
        },
        {
            "inputs": [],
            "name": "mintRate",
            "outputs": [
                {
                    "internalType": "uint256",
                    "name": "",
                    "type": "uint256"
                }
            ],
            "stateMutability": "view",
            "type": "function"
        },
        {
            "inputs": [],
            "name": "name",
            "outputs": [
                {
                    "internalType": "string",
                    "name": "",
                    "type": "string"
                }
            ],
            "stateMutability": "view",
            "type": "function"
        },
        {
            "inputs": [],
            "name": "owner",
            "outputs": [
                {
                    "internalType": "address",
                    "name": "",
                    "type": "address"
                }
            ],
            "stateMutability": "view",
            "type": "function"
        },
        {
            "inputs": [
                {
                    "internalType": "uint256",
                    "name": "tokenId",
                    "type": "uint256"
                }
            ],
            "name": "ownerOf",
            "outputs": [
                {
                    "internalType": "address",
                    "name": "",
                    "type": "address"
                }
            ],
            "stateMutability": "view",
            "type": "function"
        },
        {
            "inputs": [],
            "name": "renounceOwnership",
            "outputs": [],
            "stateMutability": "nonpayable",
            "type": "function"
        },
        {
            "inputs": [
                {
                    "internalType": "address",
                    "name": "from",
                    "type": "address"
                },
                {
                    "internalType": "address",
                    "name": "to",
                    "type": "address"
                },
                {
                    "internalType": "uint256",
                    "name": "tokenId",
                    "type": "uint256"
                }
            ],
            "name": "safeTransferFrom",
            "outputs": [],
            "stateMutability": "nonpayable",
            "type": "function"
        },
        {
            "inputs": [
                {
                    "internalType": "address",
                    "name": "from",
                    "type": "address"
                },
                {
                    "internalType": "address",
                    "name": "to",
                    "type": "address"
                },
                {
                    "internalType": "uint256",
                    "name": "tokenId",
                    "type": "uint256"
                },
                {
                    "internalType": "bytes",
                    "name": "_data",
                    "type": "bytes"
                }
            ],
            "name": "safeTransferFrom",
            "outputs": [],
            "stateMutability": "nonpayable",
            "type": "function"
        },
        {
            "inputs": [
                {
                    "internalType": "address",
                    "name": "operator",
                    "type": "address"
                },
                {
                    "internalType": "bool",
                    "name": "approved",
                    "type": "bool"
                }
            ],
            "name": "setApprovalForAll",
            "outputs": [],
            "stateMutability": "nonpayable",
            "type": "function"
        },
        {
            "inputs": [
                {
                    "internalType": "string",
                    "name": "baseURI_",
                    "type": "string"
                }
            ],
            "name": "setBaseUri",
            "outputs": [],
            "stateMutability": "nonpayable",
            "type": "function"
        },
        {
            "inputs": [
                {
                    "internalType": "bool",
                    "name": "isPublicMintEnabled_",
                    "type": "bool"
                }
            ],
            "name": "setIsPublicMintEnabled",
            "outputs": [],
            "stateMutability": "nonpayable",
            "type": "function"
        },
        {
            "inputs": [
                {
                    "internalType": "uint256",
                    "name": "_mintRate",
                    "type": "uint256"
                }
            ],
            "name": "setMintRate",
            "outputs": [],
            "stateMutability": "nonpayable",
            "type": "function"
        },
        {
            "inputs": [
                {
                    "internalType": "bytes4",
                    "name": "interfaceId",
                    "type": "bytes4"
                }
            ],
            "name": "supportsInterface",
            "outputs": [
                {
                    "internalType": "bool",
                    "name": "",
                    "type": "bool"
                }
            ],
            "stateMutability": "view",
            "type": "function"
        },
        {
            "inputs": [],
            "name": "symbol",
            "outputs": [
                {
                    "internalType": "string",
                    "name": "",
                    "type": "string"
                }
            ],
            "stateMutability": "view",
            "type": "function"
        },
        {
            "inputs": [
                {
                    "internalType": "uint256",
                    "name": "index",
                    "type": "uint256"
                }
            ],
            "name": "tokenByIndex",
            "outputs": [
                {
                    "internalType": "uint256",
                    "name": "",
                    "type": "uint256"
                }
            ],
            "stateMutability": "view",
            "type": "function"
        },
        {
            "inputs": [
                {
                    "internalType": "address",
                    "name": "owner",
                    "type": "address"
                },
                {
                    "internalType": "uint256",
                    "name": "index",
                    "type": "uint256"
                }
            ],
            "name": "tokenOfOwnerByIndex",
            "outputs": [
                {
                    "internalType": "uint256",
                    "name": "",
                    "type": "uint256"
                }
            ],
            "stateMutability": "view",
            "type": "function"
        },
        {
            "inputs": [
                {
                    "internalType": "uint256",
                    "name": "tokenId_",
                    "type": "uint256"
                }
            ],
            "name": "tokenURI",
            "outputs": [
                {
                    "internalType": "string",
                    "name": "",
                    "type": "string"
                }
            ],
            "stateMutability": "view",
            "type": "function"
        },
        {
            "inputs": [],
            "name": "totalSupply",
            "outputs": [
                {
                    "internalType": "uint256",
                    "name": "",
                    "type": "uint256"
                }
            ],
            "stateMutability": "view",
            "type": "function"
        },
        {
            "inputs": [
                {
                    "internalType": "address",
                    "name": "from",
                    "type": "address"
                },
                {
                    "internalType": "address",
                    "name": "to",
                    "type": "address"
                },
                {
                    "internalType": "uint256",
                    "name": "tokenId",
                    "type": "uint256"
                }
            ],
            "name": "transferFrom",
            "outputs": [],
            "stateMutability": "nonpayable",
            "type": "function"
        },
        {
            "inputs": [
                {
                    "internalType": "address",
                    "name": "newOwner",
                    "type": "address"
                }
            ],
            "name": "transferOwnership",
            "outputs": [],
            "stateMutability": "nonpayable",
            "type": "function"
        },
        {
            "inputs": [
                {
                    "internalType": "address",
                    "name": "",
                    "type": "address"
                }
            ],
            "name": "walletMints",
            "outputs": [
                {
                    "internalType": "uint256",
                    "name": "",
                    "type": "uint256"
                }
            ],
            "stateMutability": "view",
            "type": "function"
        },
        {
            "inputs": [],
            "name": "withdraw",
            "outputs": [],
            "stateMutability": "payable",
            "type": "function"
        }
    ],
    "bytecode": "0x60806040523480156200001157600080fd5b506040518060400160405280600b81526020017f4d696c6b795368616465730000000000000000000000000000000000000000008152506040518060400160405280600281526020017f4d53000000000000000000000000000000000000000000000000000000000000815250816001908051906020019062000096929190620001c6565b508060029080519060200190620000af929190620001c6565b505050620000d2620000c6620000f860201b60201c565b6200010060201b60201c565b600260088190555061271060098190555067011c37937e080000600a81905550620002db565b600033905090565b6000600760009054906101000a900473ffffffffffffffffffffffffffffffffffffffff16905081600760006101000a81548173ffffffffffffffffffffffffffffffffffffffff021916908373ffffffffffffffffffffffffffffffffffffffff1602179055508173ffffffffffffffffffffffffffffffffffffffff168173ffffffffffffffffffffffffffffffffffffffff167f8be0079c531659141344cd1fd0a4f28419497f9722a3daafe3b4186f6b6457e060405160405180910390a35050565b828054620001d490620002a5565b90600052602060002090601f016020900481019282620001f8576000855562000244565b82601f106200021357805160ff191683800117855562000244565b8280016001018555821562000244579182015b828111156200024357825182559160200191906001019062000226565b5b50905062000253919062000257565b5090565b5b808211156200027257600081600090555060010162000258565b5090565b7f4e487b7100000000000000000000000000000000000000000000000000000000600052602260045260246000fd5b60006002820490506001821680620002be57607f821691505b60208210811415620002d557620002d462000276565b5b50919050565b6137cc80620002eb6000396000f3fe60806040526004361061019c5760003560e01c806370a08231116100ec578063b88d4fde1161008a578063dbe2193f11610064578063dbe2193f146105aa578063e985e9c5146105d3578063f0293fd314610610578063f2fde38b1461064d5761019c565b8063b88d4fde14610519578063c87b56dd14610542578063ca0dcf161461057f5761019c565b806395d89b41116100c657806395d89b4114610480578063a0712d68146104ab578063a0bcfc7f146104c7578063a22cb465146104f05761019c565b806370a0823114610401578063715018a61461043e5780638da5cb5b146104555761019c565b80632373ac22116101595780633ccfd60b116101335780633ccfd60b1461035457806342842e0e1461035e5780634f6ccce7146103875780636352211e146103c45761019c565b80632373ac22146102c557806323b872dd146102ee5780632f745c59146103175761019c565b80630116bc2d146101a157806301ffc9a7146101cc57806306fdde0314610209578063081812fc14610234578063095ea7b31461027157806318160ddd1461029a575b600080fd5b3480156101ad57600080fd5b506101b6610676565b6040516101c391906128e3565b60405180910390f35b3480156101d857600080fd5b506101f360048036038101906101ee919061296a565b610689565b60405161020091906128e3565b60405180910390f35b34801561021557600080fd5b5061021e6107d3565b60405161022b9190612a30565b60405180910390f35b34801561024057600080fd5b5061025b60048036038101906102569190612a88565b610865565b6040516102689190612af6565b60405180910390f35b34801561027d57600080fd5b5061029860048036038101906102939190612b3d565b6108e1565b005b3480156102a657600080fd5b506102af6109ec565b6040516102bc9190612b8c565b60405180910390f35b3480156102d157600080fd5b506102ec60048036038101906102e79190612bd3565b610a41565b005b3480156102fa57600080fd5b5061031560048036038101906103109190612c00565b610a4c565b005b34801561032357600080fd5b5061033e60048036038101906103399190612b3d565b610a5c565b60405161034b9190612b8c565b60405180910390f35b61035c610c63565b005b34801561036a57600080fd5b5061038560048036038101906103809190612c00565b610cbb565b005b34801561039357600080fd5b506103ae60048036038101906103a99190612a88565b610cdb565b6040516103bb9190612b8c565b60405180910390f35b3480156103d057600080fd5b506103eb60048036038101906103e69190612a88565b610e4c565b6040516103f89190612af6565b60405180910390f35b34801561040d57600080fd5b5061042860048036038101906104239190612c53565b610e62565b6040516104359190612b8c565b60405180910390f35b34801561044a57600080fd5b50610453610f32565b005b34801561046157600080fd5b5061046a610f46565b6040516104779190612af6565b60405180910390f35b34801561048c57600080fd5b50610495610f70565b6040516104a29190612a30565b60405180910390f35b6104c560048036038101906104c09190612a88565b611002565b005b3480156104d357600080fd5b506104ee60048036038101906104e99190612ce5565b6111ec565b005b3480156104fc57600080fd5b5061051760048036038101906105129190612d32565b61120a565b005b34801561052557600080fd5b50610540600480360381019061053b9190612ea2565b611382565b005b34801561054e57600080fd5b5061056960048036038101906105649190612a88565b6113d5565b6040516105769190612a30565b60405180910390f35b34801561058b57600080fd5b50610594611451565b6040516105a19190612b8c565b60405180910390f35b3480156105b657600080fd5b506105d160048036038101906105cc9190612a88565b611457565b005b3480156105df57600080fd5b506105fa60048036038101906105f59190612f25565b611469565b60405161060791906128e3565b60405180910390f35b34801561061c57600080fd5b5061063760048036038101906106329190612c53565b6114fd565b6040516106449190612b8c565b60405180910390f35b34801561065957600080fd5b50610674600480360381019061066f9190612c53565b611515565b005b600b60009054906101000a900460ff1681565b60007f80ac58cd000000000000000000000000000000000000000000000000000000007bffffffffffffffffffffffffffffffffffffffffffffffffffffffff1916827bffffffffffffffffffffffffffffffffffffffffffffffffffffffff1916148061075457507f5b5e139f000000000000000000000000000000000000000000000000000000007bffffffffffffffffffffffffffffffffffffffffffffffffffffffff1916827bffffffffffffffffffffffffffffffffffffffffffffffffffffffff1916145b806107bc57507f780e9d63000000000000000000000000000000000000000000000000000000007bffffffffffffffffffffffffffffffffffffffffffffffffffffffff1916827bffffffffffffffffffffffffffffffffffffffffffffffffffffffff1916145b806107cc57506107cb82611599565b5b9050919050565b6060600180546107e290612f94565b80601f016020809104026020016040519081016040528092919081815260200182805461080e90612f94565b801561085b5780601f106108305761010080835404028352916020019161085b565b820191906000526020600020905b81548152906001019060200180831161083e57829003601f168201915b5050505050905090565b600061087082611603565b6108a6576040517fcf4700e400000000000000000000000000000000000000000000000000000000815260040160405180910390fd5b6005600083815260200190815260200160002060009054906101000a900473ffffffffffffffffffffffffffffffffffffffff169050919050565b60006108ec82610e4c565b90508073ffffffffffffffffffffffffffffffffffffffff168373ffffffffffffffffffffffffffffffffffffffff161415610954576040517f943f7b8c00000000000000000000000000000000000000000000000000000000815260040160405180910390fd5b8073ffffffffffffffffffffffffffffffffffffffff1661097361166b565b73ffffffffffffffffffffffffffffffffffffffff16141580156109a557506109a38161099e61166b565b611469565b155b156109dc576040517fcfb3b94200000000000000000000000000000000000000000000000000000000815260040160405180910390fd5b6109e7838383611673565b505050565b60008060109054906101000a90046fffffffffffffffffffffffffffffffff1660008054906101000a90046fffffffffffffffffffffffffffffffff16036fffffffffffffffffffffffffffffffff16905090565b610a49611725565b50565b610a578383836117a3565b505050565b6000610a6783610e62565b8210610a9f576040517f0ddac30e00000000000000000000000000000000000000000000000000000000815260040160405180910390fd5b60008060009054906101000a90046fffffffffffffffffffffffffffffffff166fffffffffffffffffffffffffffffffff16905060008060005b83811015610c57576000600360008381526020019081526020016000206040518060600160405290816000820160009054906101000a900473ffffffffffffffffffffffffffffffffffffffff1673ffffffffffffffffffffffffffffffffffffffff1673ffffffffffffffffffffffffffffffffffffffff1681526020016000820160149054906101000a900467ffffffffffffffff1667ffffffffffffffff1667ffffffffffffffff16815260200160008201601c9054906101000a900460ff1615151515815250509050806040015115610bb65750610c4a565b600073ffffffffffffffffffffffffffffffffffffffff16816000015173ffffffffffffffffffffffffffffffffffffffff1614610bf657806000015192505b8773ffffffffffffffffffffffffffffffffffffffff168373ffffffffffffffffffffffffffffffffffffffff161415610c485786841415610c3f578195505050505050610c5d565b83806001019450505b505b8080600101915050610ad9565b50600080fd5b92915050565b610c6b611725565b610c73610f46565b73ffffffffffffffffffffffffffffffffffffffff166108fc479081150290604051600060405180830381858888f19350505050158015610cb8573d6000803e3d6000fd5b50565b610cd683838360405180602001604052806000815250611382565b505050565b60008060008054906101000a90046fffffffffffffffffffffffffffffffff166fffffffffffffffffffffffffffffffff1690506000805b82811015610e14576000600360008381526020019081526020016000206040518060600160405290816000820160009054906101000a900473ffffffffffffffffffffffffffffffffffffffff1673ffffffffffffffffffffffffffffffffffffffff1673ffffffffffffffffffffffffffffffffffffffff1681526020016000820160149054906101000a900467ffffffffffffffff1667ffffffffffffffff1667ffffffffffffffff16815260200160008201601c9054906101000a900460ff16151515158152505090508060400151610e065785831415610dfd5781945050505050610e47565b82806001019350505b508080600101915050610d13565b506040517fa723001c00000000000000000000000000000000000000000000000000000000815260040160405180910390fd5b919050565b6000610e5782611cc0565b600001519050919050565b60008073ffffffffffffffffffffffffffffffffffffffff168273ffffffffffffffffffffffffffffffffffffffff161415610eca576040517f8f4eb60400000000000000000000000000000000000000000000000000000000815260040160405180910390fd5b600460008373ffffffffffffffffffffffffffffffffffffffff1673ffffffffffffffffffffffffffffffffffffffff16815260200190815260200160002060000160009054906101000a900467ffffffffffffffff1667ffffffffffffffff169050919050565b610f3a611725565b610f446000611f68565b565b6000600760009054906101000a900473ffffffffffffffffffffffffffffffffffffffff16905090565b606060028054610f7f90612f94565b80601f0160208091040260200160405190810160405280929190818152602001828054610fab90612f94565b8015610ff85780601f10610fcd57610100808354040283529160200191610ff8565b820191906000526020600020905b815481529060010190602001808311610fdb57829003601f168201915b5050505050905090565b600b60009054906101000a900460ff16611051576040517f08c379a000000000000000000000000000000000000000000000000000000000815260040161104890613012565b60405180910390fd5b60085461105d3361202e565b826110689190613061565b11156110a9576040517f08c379a00000000000000000000000000000000000000000000000000000000081526004016110a090613103565b60405180910390fd5b600954816110b56109ec565b6110bf9190613061565b1115611100576040517f08c379a00000000000000000000000000000000000000000000000000000000081526004016110f79061316f565b60405180910390fd5b60085481600d60003373ffffffffffffffffffffffffffffffffffffffff1673ffffffffffffffffffffffffffffffffffffffff1681526020019081526020016000205461114e9190613061565b111561118f576040517f08c379a0000000000000000000000000000000000000000000000000000000008152600401611186906131db565b60405180910390fd5b80600a5461119d91906131fb565b3410156111df576040517f08c379a00000000000000000000000000000000000000000000000000000000081526004016111d6906132a1565b60405180910390fd5b6111e933826120fe565b50565b6111f4611725565b8181600c91906112059291906127e2565b505050565b61121261166b565b73ffffffffffffffffffffffffffffffffffffffff168273ffffffffffffffffffffffffffffffffffffffff161415611277576040517fb06307db00000000000000000000000000000000000000000000000000000000815260040160405180910390fd5b806006600061128461166b565b73ffffffffffffffffffffffffffffffffffffffff1673ffffffffffffffffffffffffffffffffffffffff16815260200190815260200160002060008473ffffffffffffffffffffffffffffffffffffffff1673ffffffffffffffffffffffffffffffffffffffff16815260200190815260200160002060006101000a81548160ff0219169083151502179055508173ffffffffffffffffffffffffffffffffffffffff1661133161166b565b73ffffffffffffffffffffffffffffffffffffffff167f17307eab39ab6107e8899845ad3d59bd9653f200f220920489ca2b5937696c318360405161137691906128e3565b60405180910390a35050565b61138d8484846117a3565b6113998484848461211c565b6113cf576040517fd1a57ed600000000000000000000000000000000000000000000000000000000815260040160405180910390fd5b50505050565b60606113e082611603565b61141f576040517f08c379a00000000000000000000000000000000000000000000000000000000081526004016114169061330d565b60405180910390fd5b600c61142a836122aa565b60405160200161143b929190613449565b6040516020818303038152906040529050919050565b600a5481565b61145f611725565b80600a8190555050565b6000600660008473ffffffffffffffffffffffffffffffffffffffff1673ffffffffffffffffffffffffffffffffffffffff16815260200190815260200160002060008373ffffffffffffffffffffffffffffffffffffffff1673ffffffffffffffffffffffffffffffffffffffff16815260200190815260200160002060009054906101000a900460ff16905092915050565b600d6020528060005260406000206000915090505481565b61151d611725565b600073ffffffffffffffffffffffffffffffffffffffff168173ffffffffffffffffffffffffffffffffffffffff16141561158d576040517f08c379a0000000000000000000000000000000000000000000000000000000008152600401611584906134ea565b60405180910390fd5b61159681611f68565b50565b60007f01ffc9a7000000000000000000000000000000000000000000000000000000007bffffffffffffffffffffffffffffffffffffffffffffffffffffffff1916827bffffffffffffffffffffffffffffffffffffffffffffffffffffffff1916149050919050565b60008060009054906101000a90046fffffffffffffffffffffffffffffffff166fffffffffffffffffffffffffffffffff1682108015611664575060036000838152602001908152602001600020600001601c9054906101000a900460ff16155b9050919050565b600033905090565b826005600084815260200190815260200160002060006101000a81548173ffffffffffffffffffffffffffffffffffffffff021916908373ffffffffffffffffffffffffffffffffffffffff160217905550818373ffffffffffffffffffffffffffffffffffffffff168273ffffffffffffffffffffffffffffffffffffffff167f8c5be1e5ebec7d5bd14f71427d1e84f3dd0314c0f7b2291e5b200ac8c7c3b92560405160405180910390a4505050565b61172d61166b565b73ffffffffffffffffffffffffffffffffffffffff1661174b610f46565b73ffffffffffffffffffffffffffffffffffffffff16146117a1576040517f08c379a000000000000000000000000000000000000000000000000000000000815260040161179890613556565b60405180910390fd5b565b60006117ae82611cc0565b90506000816000015173ffffffffffffffffffffffffffffffffffffffff166117d561166b565b73ffffffffffffffffffffffffffffffffffffffff1614806118085750611807826000015161180261166b565b611469565b5b8061184d575061181661166b565b73ffffffffffffffffffffffffffffffffffffffff1661183584610865565b73ffffffffffffffffffffffffffffffffffffffff16145b905080611886576040517f59c896be00000000000000000000000000000000000000000000000000000000815260040160405180910390fd5b8473ffffffffffffffffffffffffffffffffffffffff16826000015173ffffffffffffffffffffffffffffffffffffffff16146118ef576040517fa114810000000000000000000000000000000000000000000000000000000000815260040160405180910390fd5b600073ffffffffffffffffffffffffffffffffffffffff168473ffffffffffffffffffffffffffffffffffffffff161415611956576040517fea553b3400000000000000000000000000000000000000000000000000000000815260040160405180910390fd5b611963858585600161240b565b6119736000848460000151611673565b6001600460008773ffffffffffffffffffffffffffffffffffffffff1673ffffffffffffffffffffffffffffffffffffffff16815260200190815260200160002060000160008282829054906101000a900467ffffffffffffffff160392506101000a81548167ffffffffffffffff021916908367ffffffffffffffff1602179055506001600460008673ffffffffffffffffffffffffffffffffffffffff1673ffffffffffffffffffffffffffffffffffffffff16815260200190815260200160002060000160008282829054906101000a900467ffffffffffffffff160192506101000a81548167ffffffffffffffff021916908367ffffffffffffffff160217905550836003600085815260200190815260200160002060000160006101000a81548173ffffffffffffffffffffffffffffffffffffffff021916908373ffffffffffffffffffffffffffffffffffffffff160217905550426003600085815260200190815260200160002060000160146101000a81548167ffffffffffffffff021916908367ffffffffffffffff1602179055506000600184019050600073ffffffffffffffffffffffffffffffffffffffff166003600083815260200190815260200160002060000160009054906101000a900473ffffffffffffffffffffffffffffffffffffffff1673ffffffffffffffffffffffffffffffffffffffff161415611c505760008054906101000a90046fffffffffffffffffffffffffffffffff166fffffffffffffffffffffffffffffffff16811015611c4f5782600001516003600083815260200190815260200160002060000160006101000a81548173ffffffffffffffffffffffffffffffffffffffff021916908373ffffffffffffffffffffffffffffffffffffffff16021790555082602001516003600083815260200190815260200160002060000160146101000a81548167ffffffffffffffff021916908367ffffffffffffffff1602179055505b5b50828473ffffffffffffffffffffffffffffffffffffffff168673ffffffffffffffffffffffffffffffffffffffff167fddf252ad1be2c89b69c2b068fc378daa952ba7f163c4a11628f55a4df523b3ef60405160405180910390a4611cb98585856001612411565b5050505050565b611cc8612868565b600082905060008054906101000a90046fffffffffffffffffffffffffffffffff166fffffffffffffffffffffffffffffffff16811015611f31576000600360008381526020019081526020016000206040518060600160405290816000820160009054906101000a900473ffffffffffffffffffffffffffffffffffffffff1673ffffffffffffffffffffffffffffffffffffffff1673ffffffffffffffffffffffffffffffffffffffff1681526020016000820160149054906101000a900467ffffffffffffffff1667ffffffffffffffff1667ffffffffffffffff16815260200160008201601c9054906101000a900460ff16151515158152505090508060400151611f2f57600073ffffffffffffffffffffffffffffffffffffffff16816000015173ffffffffffffffffffffffffffffffffffffffff1614611e13578092505050611f63565b5b600115611f2e57818060019003925050600360008381526020019081526020016000206040518060600160405290816000820160009054906101000a900473ffffffffffffffffffffffffffffffffffffffff1673ffffffffffffffffffffffffffffffffffffffff1673ffffffffffffffffffffffffffffffffffffffff1681526020016000820160149054906101000a900467ffffffffffffffff1667ffffffffffffffff1667ffffffffffffffff16815260200160008201601c9054906101000a900460ff1615151515815250509050600073ffffffffffffffffffffffffffffffffffffffff16816000015173ffffffffffffffffffffffffffffffffffffffff1614611f29578092505050611f63565b611e14565b5b505b6040517fdf2d9b4200000000000000000000000000000000000000000000000000000000815260040160405180910390fd5b919050565b6000600760009054906101000a900473ffffffffffffffffffffffffffffffffffffffff16905081600760006101000a81548173ffffffffffffffffffffffffffffffffffffffff021916908373ffffffffffffffffffffffffffffffffffffffff1602179055508173ffffffffffffffffffffffffffffffffffffffff168173ffffffffffffffffffffffffffffffffffffffff167f8be0079c531659141344cd1fd0a4f28419497f9722a3daafe3b4186f6b6457e060405160405180910390a35050565b60008073ffffffffffffffffffffffffffffffffffffffff168273ffffffffffffffffffffffffffffffffffffffff161415612096576040517f35ebb31900000000000000000000000000000000000000000000000000000000815260040160405180910390fd5b600460008373ffffffffffffffffffffffffffffffffffffffff1673ffffffffffffffffffffffffffffffffffffffff16815260200190815260200160002060000160089054906101000a900467ffffffffffffffff1667ffffffffffffffff169050919050565b612118828260405180602001604052806000815250612417565b5050565b600061213d8473ffffffffffffffffffffffffffffffffffffffff16612429565b1561229d578373ffffffffffffffffffffffffffffffffffffffff1663150b7a0261216661166b565b8786866040518563ffffffff1660e01b815260040161218894939291906135cb565b602060405180830381600087803b1580156121a257600080fd5b505af19250505080156121d357506040513d601f19601f820116820180604052508101906121d0919061362c565b60015b61224d573d8060008114612203576040519150601f19603f3d011682016040523d82523d6000602084013e612208565b606091505b50600081511415612245576040517fd1a57ed600000000000000000000000000000000000000000000000000000000815260040160405180910390fd5b805181602001fd5b63150b7a0260e01b7bffffffffffffffffffffffffffffffffffffffffffffffffffffffff1916817bffffffffffffffffffffffffffffffffffffffffffffffffffffffff1916149150506122a2565b600190505b949350505050565b606060008214156122f2576040518060400160405280600181526020017f30000000000000000000000000000000000000000000000000000000000000008152509050612406565b600082905060005b6000821461232457808061230d90613659565b915050600a8261231d91906136d1565b91506122fa565b60008167ffffffffffffffff8111156123405761233f612d77565b5b6040519080825280601f01601f1916602001820160405280156123725781602001600182028036833780820191505090505b5090505b600085146123ff5760018261238b9190613702565b9150600a8561239a9190613736565b60306123a69190613061565b60f81b8183815181106123bc576123bb613767565b5b60200101907effffffffffffffffffffffffffffffffffffffffffffffffffffffffffffff1916908160001a905350600a856123f891906136d1565b9450612376565b8093505050505b919050565b50505050565b50505050565b612424838383600161244c565b505050565b6000808273ffffffffffffffffffffffffffffffffffffffff163b119050919050565b60008060009054906101000a90046fffffffffffffffffffffffffffffffff166fffffffffffffffffffffffffffffffff169050600073ffffffffffffffffffffffffffffffffffffffff168573ffffffffffffffffffffffffffffffffffffffff1614156124e7576040517f2e07630000000000000000000000000000000000000000000000000000000000815260040160405180910390fd5b6000841415612522576040517fb562e8dd00000000000000000000000000000000000000000000000000000000815260040160405180910390fd5b61252f600086838761240b565b83600460008773ffffffffffffffffffffffffffffffffffffffff1673ffffffffffffffffffffffffffffffffffffffff16815260200190815260200160002060000160008282829054906101000a900467ffffffffffffffff160192506101000a81548167ffffffffffffffff021916908367ffffffffffffffff16021790555083600460008773ffffffffffffffffffffffffffffffffffffffff1673ffffffffffffffffffffffffffffffffffffffff16815260200190815260200160002060000160088282829054906101000a900467ffffffffffffffff160192506101000a81548167ffffffffffffffff021916908367ffffffffffffffff160217905550846003600083815260200190815260200160002060000160006101000a81548173ffffffffffffffffffffffffffffffffffffffff021916908373ffffffffffffffffffffffffffffffffffffffff160217905550426003600083815260200190815260200160002060000160146101000a81548167ffffffffffffffff021916908367ffffffffffffffff160217905550600081905060005b8581101561279457818773ffffffffffffffffffffffffffffffffffffffff16600073ffffffffffffffffffffffffffffffffffffffff167fddf252ad1be2c89b69c2b068fc378daa952ba7f163c4a11628f55a4df523b3ef60405160405180910390a48380156127485750612746600088848861211c565b155b1561277f576040517fd1a57ed600000000000000000000000000000000000000000000000000000000815260040160405180910390fd5b818060010192505080806001019150506126cd565b50806000806101000a8154816fffffffffffffffffffffffffffffffff02191690836fffffffffffffffffffffffffffffffff160217905550506127db6000868387612411565b5050505050565b8280546127ee90612f94565b90600052602060002090601f0160209004810192826128105760008555612857565b82601f1061282957803560ff1916838001178555612857565b82800160010185558215612857579182015b8281111561285657823582559160200191906001019061283b565b5b50905061286491906128ab565b5090565b6040518060600160405280600073ffffffffffffffffffffffffffffffffffffffff168152602001600067ffffffffffffffff1681526020016000151581525090565b5b808211156128c45760008160009055506001016128ac565b5090565b60008115159050919050565b6128dd816128c8565b82525050565b60006020820190506128f860008301846128d4565b92915050565b6000604051905090565b600080fd5b600080fd5b60007fffffffff0000000000000000000000000000000000000000000000000000000082169050919050565b61294781612912565b811461295257600080fd5b50565b6000813590506129648161293e565b92915050565b6000602082840312156129805761297f612908565b5b600061298e84828501612955565b91505092915050565b600081519050919050565b600082825260208201905092915050565b60005b838110156129d15780820151818401526020810190506129b6565b838111156129e0576000848401525b50505050565b6000601f19601f8301169050919050565b6000612a0282612997565b612a0c81856129a2565b9350612a1c8185602086016129b3565b612a25816129e6565b840191505092915050565b60006020820190508181036000830152612a4a81846129f7565b905092915050565b6000819050919050565b612a6581612a52565b8114612a7057600080fd5b50565b600081359050612a8281612a5c565b92915050565b600060208284031215612a9e57612a9d612908565b5b6000612aac84828501612a73565b91505092915050565b600073ffffffffffffffffffffffffffffffffffffffff82169050919050565b6000612ae082612ab5565b9050919050565b612af081612ad5565b82525050565b6000602082019050612b0b6000830184612ae7565b92915050565b612b1a81612ad5565b8114612b2557600080fd5b50565b600081359050612b3781612b11565b92915050565b60008060408385031215612b5457612b53612908565b5b6000612b6285828601612b28565b9250506020612b7385828601612a73565b9150509250929050565b612b8681612a52565b82525050565b6000602082019050612ba16000830184612b7d565b92915050565b612bb0816128c8565b8114612bbb57600080fd5b50565b600081359050612bcd81612ba7565b92915050565b600060208284031215612be957612be8612908565b5b6000612bf784828501612bbe565b91505092915050565b600080600060608486031215612c1957612c18612908565b5b6000612c2786828701612b28565b9350506020612c3886828701612b28565b9250506040612c4986828701612a73565b9150509250925092565b600060208284031215612c6957612c68612908565b5b6000612c7784828501612b28565b91505092915050565b600080fd5b600080fd5b600080fd5b60008083601f840112612ca557612ca4612c80565b5b8235905067ffffffffffffffff811115612cc257612cc1612c85565b5b602083019150836001820283011115612cde57612cdd612c8a565b5b9250929050565b60008060208385031215612cfc57612cfb612908565b5b600083013567ffffffffffffffff811115612d1a57612d1961290d565b5b612d2685828601612c8f565b92509250509250929050565b60008060408385031215612d4957612d48612908565b5b6000612d5785828601612b28565b9250506020612d6885828601612bbe565b9150509250929050565b600080fd5b7f4e487b7100000000000000000000000000000000000000000000000000000000600052604160045260246000fd5b612daf826129e6565b810181811067ffffffffffffffff82111715612dce57612dcd612d77565b5b80604052505050565b6000612de16128fe565b9050612ded8282612da6565b919050565b600067ffffffffffffffff821115612e0d57612e0c612d77565b5b612e16826129e6565b9050602081019050919050565b82818337600083830152505050565b6000612e45612e4084612df2565b612dd7565b905082815260208101848484011115612e6157612e60612d72565b5b612e6c848285612e23565b509392505050565b600082601f830112612e8957612e88612c80565b5b8135612e99848260208601612e32565b91505092915050565b60008060008060808587031215612ebc57612ebb612908565b5b6000612eca87828801612b28565b9450506020612edb87828801612b28565b9350506040612eec87828801612a73565b925050606085013567ffffffffffffffff811115612f0d57612f0c61290d565b5b612f1987828801612e74565b91505092959194509250565b60008060408385031215612f3c57612f3b612908565b5b6000612f4a85828601612b28565b9250506020612f5b85828601612b28565b9150509250929050565b7f4e487b7100000000000000000000000000000000000000000000000000000000600052602260045260246000fd5b60006002820490506001821680612fac57607f821691505b60208210811415612fc057612fbf612f65565b5b50919050565b7f6d696e74696e67206e6f7420656e61626c656400000000000000000000000000600082015250565b6000612ffc6013836129a2565b915061300782612fc6565b602082019050919050565b6000602082019050818103600083015261302b81612fef565b9050919050565b7f4e487b7100000000000000000000000000000000000000000000000000000000600052601160045260246000fd5b600061306c82612a52565b915061307783612a52565b9250827fffffffffffffffffffffffffffffffffffffffffffffffffffffffffffffffff038211156130ac576130ab613032565b5b828201905092915050565b7f457863656564656420746865206c696d69740000000000000000000000000000600082015250565b60006130ed6012836129a2565b91506130f8826130b7565b602082019050919050565b6000602082019050818103600083015261311c816130e0565b9050919050565b7f536f6c64204f7574000000000000000000000000000000000000000000000000600082015250565b60006131596008836129a2565b915061316482613123565b602082019050919050565b600060208201905081810360008301526131888161314c565b9050919050565b7f657863656564206d6178696d756d000000000000000000000000000000000000600082015250565b60006131c5600e836129a2565b91506131d08261318f565b602082019050919050565b600060208201905081810360008301526131f4816131b8565b9050919050565b600061320682612a52565b915061321183612a52565b9250817fffffffffffffffffffffffffffffffffffffffffffffffffffffffffffffffff048311821515161561324a57613249613032565b5b828202905092915050565b7f4e6f7420656e6f7567682065746865722073656e740000000000000000000000600082015250565b600061328b6015836129a2565b915061329682613255565b602082019050919050565b600060208201905081810360008301526132ba8161327e565b9050919050565b7f546f6b656e20646f6573206e6f74206578697374000000000000000000000000600082015250565b60006132f76014836129a2565b9150613302826132c1565b602082019050919050565b60006020820190508181036000830152613326816132ea565b9050919050565b600081905092915050565b60008190508160005260206000209050919050565b6000815461335a81612f94565b613364818661332d565b9450600182166000811461337f5760018114613390576133c3565b60ff198316865281860193506133c3565b61339985613338565b60005b838110156133bb5781548189015260018201915060208101905061339c565b838801955050505b50505092915050565b60006133d782612997565b6133e1818561332d565b93506133f18185602086016129b3565b80840191505092915050565b7f2e6a736f6e000000000000000000000000000000000000000000000000000000600082015250565b600061343360058361332d565b915061343e826133fd565b600582019050919050565b6000613455828561334d565b915061346182846133cc565b915061346c82613426565b91508190509392505050565b7f4f776e61626c653a206e6577206f776e657220697320746865207a65726f206160008201527f6464726573730000000000000000000000000000000000000000000000000000602082015250565b60006134d46026836129a2565b91506134df82613478565b604082019050919050565b60006020820190508181036000830152613503816134c7565b9050919050565b7f4f776e61626c653a2063616c6c6572206973206e6f7420746865206f776e6572600082015250565b60006135406020836129a2565b915061354b8261350a565b602082019050919050565b6000602082019050818103600083015261356f81613533565b9050919050565b600081519050919050565b600082825260208201905092915050565b600061359d82613576565b6135a78185613581565b93506135b78185602086016129b3565b6135c0816129e6565b840191505092915050565b60006080820190506135e06000830187612ae7565b6135ed6020830186612ae7565b6135fa6040830185612b7d565b818103606083015261360c8184613592565b905095945050505050565b6000815190506136268161293e565b92915050565b60006020828403121561364257613641612908565b5b600061365084828501613617565b91505092915050565b600061366482612a52565b91507fffffffffffffffffffffffffffffffffffffffffffffffffffffffffffffffff82141561369757613696613032565b5b600182019050919050565b7f4e487b7100000000000000000000000000000000000000000000000000000000600052601260045260246000fd5b60006136dc82612a52565b91506136e783612a52565b9250826136f7576136f66136a2565b5b828204905092915050565b600061370d82612a52565b915061371883612a52565b92508282101561372b5761372a613032565b5b828203905092915050565b600061374182612a52565b915061374c83612a52565b92508261375c5761375b6136a2565b5b828206905092915050565b7f4e487b7100000000000000000000000000000000000000000000000000000000600052603260045260246000fdfea264697066735822122038580348f9a7023665a7b40a814fe87d3babd0e59a5472ea1d5db2089f408aad64736f6c63430008090033",
    "linkReferences": {},
    "deployedLinkReferences": {}
}